:020000040800F2
:10000000A008002061010008452300087D1E0008AB
:1000100000000000000000000000000000000000E0
:100020000000000000000000000000004B2300085A
:100030000000000000000000492300084D230008D4
:1000400073010008730100087301000873010008C0
:1000500073010008730100087301000873010008B0
:1000600073010008A1040008B1040008C9040008D5
:100070007301000873010008730100087301000890
:100080007301000873010008730100087301000880
:100090007301000873010008730100087301000870
:1000A0007301000873010008730100087301000860
:1000B0002D2C00083D2C00087301000800F002F808
:1000C00000F03EF80CA030C8083824182D18A246BD
:1000D000671EAB4654465D46AC4201D100F030F895
:1000E0007E460F3E0FCCB6460126334200D0FB1AA7
:1000F000A246AB4633431847FC2C00001C2D0000E1
:10010000103A02D378C878C1FAD8520701D330C860
:1001100030C101D504680C60704700000023002442
:1001200000250026103A01D378C1FBD8520700D32E
:1001300030C100D50B6070471FB51FBD10B510BD95
:1001400000F07BF91146FFF7F7FF02F0E7FD00F042
:1001500093F903B4FFF7F2FF03BC00F099F9000034
:100160000748804707480047FEE7FEE7FEE7FEE74F
:10017000FEE7FEE704480549054A064B70470000C4
:10018000C9230008BD000008A0020020A00800202C
:10019000A0040020A0040020FEB5054610460C4631
:1001A000184373D0AE468C460020AD1A01469C41E0
:1001B00067D36646002701243D46B61A9D4102D307
:1001C00013463A462124654676462F04360C3E43B4
:1001D0002D0CB61A9D4104D3150C1B042B4312049D
:1001E0001034654676462F06360A3E432D0AB61A67
:1001F0009D4104D3150E1B022B43120208346546A1
:1002000076462F0736093E432D09B61A9D4104D381
:10021000150F1B012B431201241D65467646AF07BF
:10022000B6083E43AD08B61A9D4104D3950F9B0016
:100230002B439200A41C65467646EF0776083E43A2
:100240006D08B61A9D411AD392185B41641C16E0E2
:100250000018764665464941B71A9D4101910090C4
:1002600009D36046B11A98418E4684460098019998
:100270000025401C6941DD0752082A435B08641EC3
:10028000E6D57246634603B0F0BDFFE700200146A5
:10029000C046C0462A462346F5E701E004C0091FD0
:1002A0000429FBD28B0701D50280801CC90700D02E
:1002B0000270704700290BD0C30702D00270401CA7
:1002C000491E022904D3830702D50280801C891E9F
:1002D000E3E70022EEE70022DFE7002203098B427A
:1002E0002CD3030A8B4211D300239C464EE00346D5
:1002F0000B433CD4002243088B4231D303098B4289
:100300001CD3030A8B4201D394463FE0C3098B42BE
:1003100001D3CB01C01A524183098B4201D38B0117
:10032000C01A524143098B4201D34B01C01A5241BA
:1003300003098B4201D30B01C01A5241C3088B42FF
:1003400001D3CB00C01A524183088B4201D38B00EA
:10035000C01A524143088B4201D34B00C01A52418C
:10036000411A00D201465241104670475DE0CA0F63
:1003700000D04942031000D34042534000229C4623
:1003800003098B422DD3030A8B4212D3FC2289012D
:1003900012BA030A8B420CD3890192118B4208D303
:1003A000890192118B4204D389013AD0921100E065
:1003B0008909C3098B4201D3CB01C01A5241830979
:1003C0008B4201D38B01C01A524143098B4201D3A6
:1003D0004B01C01A524103098B4201D30B01C01AD1
:1003E0005241C3088B4201D3CB00C01A524183084B
:1003F0008B4201D38B00C01A5241D9D243088B42A1
:1004000001D34B00C01A5241411A00D20146634643
:1004100052415B10104601D34042002B00D54942A7
:10042000704763465B1000D3404201B50020C046D0
:10043000C04602BD704770477047754600F024F80B
:10044000AE46050069465346C008C000854618B050
:1004500020B5FFF78FFE60BC00274908B64600268E
:10046000C0C5C0C5C0C5C0C5C0C5C0C5C0C5C0C564
:10047000403D49008D46704710B50446C046C04611
:100480002046FFF766FE10BD004870473C02002082
:1004900001491820ABBEFEE72600020070470000AD
:1004A00010B5024800F0A7F810BD0000A40100201C
:1004B00010B5034800F09FF8024800F09CF810BD0A
:1004C000E80100201C01002010B5024800F093F85C
:1004D00010BD00006001002010B504460D492068E1
:1004E00088420BD20C4A2168881A1421FFF7F5FEC6
:1004F0008000206408480838E0630AE0054A216863
:10050000881A1421FFF7E9FE8000206401480838AA
:10051000E06310BD080402400800024030B5012429
:10052000056CAC40C56B6C60046863604468102C5B
:1005300004D10468A2600468E16003E00468A1607B
:100540000468E26030BD72B600BFFEE701462120BC
:10055000405C022808D00420886300BF00222020CD
:10056000425400BF01207047086800680E22904383
:100570000A68106008680068400840000A68106057
:1005800001200A6C9040CA6B506001222120425425
:1005900000BF00222020425400BF0020E3E770B5D6
:1005A000044600252120005D022803D00420A0631A
:1005B00001251EE0206800680E218843216808603C
:1005C0002068006840084000216808600120216C14
:1005D0008840E16B486001212120015500BF0021C6
:1005E0002020015500BF606B002802D02046616BBF
:1005F0008847284670BD70B50446E06B05682068E2
:1006000006680420216C8840284000281BD0042064
:100610003040002817D020680068202108400028BA
:1006200005D12068006804218843216808600420FF
:10063000216C8840E16B4860E06A002852D0204677
:10064000E16A88474EE00220216C8840284000285B
:1006500023D00220304000281FD0206800682021CD
:100660000840002808D1206800680A2188432168D2
:1006700008600121212001550220216C8840E16B96
:10068000486000BF00212020015500BFA06A00285B
:1006900028D02046A16A884724E00820216C8840A1
:1006A000284000281ED00820304000281AD020689A
:1006B00000680E218843216808600120216C884071
:1006C000E16B48600120A06301212120015500BF9A
:1006D00000212020015500BF206B002802D02046B9
:1006E000216B884770BD000070B504460025002CC2
:1006F00001D1012070BD022121200155206805682B
:100700000F480540A16860680843E1680843216913
:10071000084361690843A1690843E1690843054347
:10072000206805602046FFF7D7FE0020A063012166
:10073000212001550021202001550020DAE700008A
:100740000FC0FFFFF8B504460D4616461F460020B1
:10075000009000BF2020005D012801D10220F8BDDB
:1007600001212020015500BF2120005D01282DD14D
:100770000221212001550020A06320680068400864
:100780004000216808603B46324629462046FFF774
:10079000C5FEE06A002806D0206800680E210843E4
:1007A000216808600BE0206800680A21084321687E
:1007B0000860206800680421884321680860206878
:1007C0000068012108432168086006E000BF00219D
:1007D0002020015500BF022000900098BFE70000D4
:1007E00070B5044600F02AF906462546681C002824
:1007F00002D0054800782D1800BF00F01FF9801BBB
:10080000A842FAD370BD00000C00002078B5034662
:100810000A460021E4E001268E4014683440002C92
:100820007ED01579AD07AD0F012D04D01579AD0738
:10083000AD0F022D18D198684E000325B54006462D
:10084000AE4330464E00D568B5402843986058689E
:1008500001258D400646AE4330461026556835408A
:100860002D098D40284358601579AD07AD0F032D34
:100870000BD0D8684E000325B5400646AE4330463F
:100880004E009568B5402843D8601579AD07AD0F87
:10089000022D15D1CD08AE001D462035A8594D07B3
:1008A000EE0E0F25B5400646AE4330464E07F60E17
:1008B0001569B5402843CD08AD001E46203670515D
:1008C00018684E000325B5400646AE4330461579FC
:1008D000AD07AD0F4E00B54028431860032636041F
:1008E00055683540002D7AD000BF404DAD690126D6
:1008F00035433E4EB5613546AD69ED07ED0F0095C8
:1009000000BF00BF3A4D8E08B600A8598D072E0FC4
:100910000F25B5400646AE4330460925ED0600E0FA
:100920005DE0AB4201D1002514E0324DAB4201D174
:1009300001250FE0304DAB4201D102250AE02F4DD9
:10094000AB4201D1032505E02D4DAB4201D1042579
:1009500000E005258E07360FB5402843244D8E084C
:10096000B600A851274D28680546A543284601260C
:10097000360455683540002D02D0054625432846EB
:10098000204D286068680546A54328460126760460
:1009900055683540002D02D0054625432846194D9F
:1009A0006860A8680546A5432846012636055568AF
:1009B0003540002D02D0054625432846114DA8603C
:1009C000E8680546A5432846012676055568354062
:1009D000002D02D00546254328460A4DE860491CF3
:1009E0001568CD40002D00D015E778BD00100240FD
:1009F000080001400004004800080048000C0048BE
:100A00000010004800040140024613690B40002B0F
:100A100001D0012000E00020704710B54269134664
:100A20000B401B040C4694432343836110BD002AF2
:100A300001D0816100E081627047000001480068D8
:100A4000704700000400002003480068034909784B
:100A50004018014908607047040000200C00002085
:100A600010B50648006810210843044908600320B7
:100A700000F006F800F02EF8002010BD0020024023
:100A800070B50446104801787D20C000FFF725FCB2
:100A9000064631460D480068FFF71FFC054600F08A
:100AA0009FFD002801D0012070BD042C07D2002238
:100AB0002146501E00F03CF80548046001E001208A
:100AC000F2E70020F0E700000C00002010000020FA
:100AD0000800002008B500BF0D48806901210843C7
:100AE0000B49886108468069C007C00F009000BFAD
:100AF00000BF00BF0846C069090408430449C86133
:100B00000846C06909040840009000BF00BF08BD46
:100B1000001002400146002905DBCB06DB0E012256
:100B20009A40024B1A6000BF7047000000E100E0ED
:100B300070B504460D4616462946204602F0ACF82C
:100B400070BD0000F8B50446002600250121090407
:100B50002068084088427AD100276048C0690903AC
:100B6000084000280DD100BF5C48C06908435B49BC
:100B7000C8610846C06909040840009000BF00BF72
:100B8000012757480068FF2101310840002816D18D
:100B900053480068084352490860FFF74FFF064674
:100BA00006E0FFF74BFF801B642801D90320F8BD46
:100BB0004B480068FF21013108400028F1D0474828
:100BC000006A0321090208400546002D2DD0606807
:100BD0000840A84229D04148006A884305463F485A
:100BE000006A0121090408433C4908620846006A7A
:100BF0000121090488433949086208460562E8076B
:100C0000C00F002811D0FFF719FF064607E0FFF7D5
:100C100015FF801B3349884201D90320C7E72F48BD
:100C2000006A022108400028F1D02C48006A032104
:100C3000090288436168084328490862012F05D1E9
:100C40000846C069090488432449C86100BF207868
:100C5000C007C00F002807D02048006B8008800024
:100C6000A16808431D490863022120680840022842
:100C700008D11A48006B032109048843E16808433E
:100C8000164908630121890420680840884208D178
:100C90001248006B032189048843216908430F49E6
:100CA0000863202120680840202807D10B48006BEA
:100CB00010218843616908430849086301218902BA
:100CC00020680840884207D10448006B40218843CF
:100CD000A169084301490863002068E70010024049
:100CE000007000408813000070B504460D46002CCB
:100CF00001D1012070BD58480068C007C00FA8424C
:100D00000ED2554800684008400028435249086008
:100D100008460068C007C00FA84201D00120E9E7DB
:100D2000022120680840022814D1042120680840CC
:100D3000042807D149484068072109028843401820
:100D40004649486045484068F0218843A168084307
:100D5000424948602078C007C00F002847D060682B
:100D6000012808D13D4800680121490408400028B5
:100D700021D10120BEE76068022808D13748006809
:100D8000012149060840002815D10120B2E760681A
:100D9000032808D13148406B01210904084000288C
:100DA00009D10120A6E72D4800680221084000284B
:100DB00001D101209EE729484068800880006168D1
:100DC000084326494860FFF739FE064607E0FFF76B
:100DD00035FE801B2249884201D903208AE71F483B
:100DE00040680C210840616889008842EFD11A48A8
:100DF0000068C007C00FA8420ED917480068400815
:100E0000400028431449086008460068C007C00F26
:100E1000A84201D001206DE7042120680840042881
:100E200008D10E484068072109028843E168084359
:100E30000A49486000F032F808494968F022114038
:100E40000909084A515CC840074908600320FFF7B8
:100E500017FE00204EE70000002002400010024074
:100E600088130000DC2D00081000002001480068F5
:100E7000704700001000002000B5FFF7F7FF05499C
:100E80004968072212021140090A034A515CC8400E
:100E900000BD000000100240EC2D0008F0B589B044
:100EA00035A001460EC9C06805AC0EC4089036A036
:100EB00001460EC9C06801AC0EC404900025002490
:100EC0000027002600200090334845680C20284069
:100ED000002849D0042804D0082805D00C2842D185
:100EE0003EE02E48009042E00F2080042840800C15
:100EF00005A90E5C2848C06A0007000F01A90C5C18
:100F00000320C00328400121090488420AD1224657
:100F1000002322481946FFF73FF9314601F096FEBB
:100F200007461BE00320C00328400321C903884271
:100F30000AD1224600231A481946FFF72DF93146F7
:100F400001F084FE074609E02246002313481946B3
:100F5000FFF722F9314601F079FE0746009706E0D7
:100F60000F48009003E000BF0C48009000BF00BF96
:100F7000009809B0F0BD0000020304050607080947
:100F80000A0B0C0D0E0F10100102030405060708D2
:100F9000090A0B0C0D0E0F100010024000127A000F
:100FA000006CDC02FEB50446002C01D10120FEBD20
:100FB0002078C007C00F002872D0FC4840680C2180
:100FC000084004280CD0F94840680840082813D18C
:100FD000F6484068490308400121090488420BD1C2
:100FE000F248006801214904084000286BD060687D
:100FF000002868D10120DAE700BF6068012807D126
:10100000EA480068012109040843E849086031E022
:10101000606800280ED1E548006801210904884372
:10102000E249086008460068012189048843DF49D5
:1010300008601FE0606805280ED1DC4800680121C7
:1010400089040843D9490860084600680121090459
:101050000843D64908600DE0D4480068012109041E
:101060008843D24908600846006801218904884302
:10107000CE49086000BF6068002812D0FFF7DEFC90
:10108000054606E0FFF7DAFC401B642801D903207F
:101090008DE7C64800680121490408400028F1D0C6
:1010A00011E0FFF7CBFC054606E0FFF7C7FC401B4D
:1010B000642801D903207AE7BC480068012149046B
:1010C00008400028F1D1022120680840022862D19E
:1010D000B64840680C21084000280CD0B34840684E
:1010E000084008281CD1B148406849030840012144
:1010F000C903884214D1AD48006802210840002885
:1011000004D0E068012801D0012050E7A74800681A
:10111000F82188432169C9000843A44908603AE0DE
:10112000E068002820D0A1480068012108439F49B9
:101130000860FFF783FC054606E0FFF77FFC401BD5
:10114000022801D9032032E79848006802210840AC
:101150000028F2D095480068F82188432169C90029
:1011600008439249086016E0904800684008400033
:101170008E490860FFF762FC054606E0FFF75EFC5B
:10118000401B022801D9032011E78848006802218A
:1011900008400028F2D1082120680840082831D1F1
:1011A000E069002817D08148406A012108437F493F
:1011B0004862FFF743FC054606E0FFF73FFC401B93
:1011C000022801D90320F2E67848406A022108404B
:1011D0000028F2D016E07548406A40084000734984
:1011E0004862FFF72BFC054606E0FFF727FC401B93
:1011F000022801D90320DAE66C48406A022108403F
:101200000028F2D1042120680840042872D100206F
:1012100001906648C0698906084000280ED100BFC9
:101220006248C06908436149C8610846C069090449
:101230000840009000BF00BF012001905C4800689A
:10124000FF2101310840002816D1594800680843A1
:1012500057490860FFF7F2FB054606E0FFF7EEFB93
:10126000401B642801D90320A1E651480068FF21F2
:10127000013108400028F1D000BFA068012806D144
:101280004A48006A01210843484908622AE0A068E8
:1012900000280BD14548006A4108490043480162D3
:1012A000006A04218843414908621BE0A0680528C0
:1012B0000CD13E48006A042108433C4908620846B4
:1012C000006A01210843394908620BE03748006A87
:1012D00040084000354908620846006A04218843F6
:1012E0003249086200BFA068002813D0FFF7A6FBB0
:1012F000054608E02BE0FFF7A1FB401B2D49884283
:1013000001D9032053E62948006A02210840002839
:10131000F1D011E0FFF792FB054607E0FFF78EFBE7
:10132000411B2448814201D9032040E61F48006A3E
:10133000022108400028F1D10198012806D11B485C
:10134000C0690121090788431849C86100BF1021FD
:101350002068084010285FD1606901282CD113480B
:10136000406B04210843114948630846406B012142
:1013700008430E494863FFF761FB054606E0FFF7A7
:101380005DFB401B022801D9032010E60748406B93
:10139000022108400028F2D00448406BF82188431D
:1013A000A169C90008430149486335E000100240C3
:1013B00000700040881300006069401D00280FD1B4
:1013C0008648406B04218843844948630846406B43
:1013D000F8218843A169C9000843804948631BE09C
:1013E0007E48406B042108437C4948630846406BB3
:1013F000400840004863FFF721FB054606E0FFF781
:101400001DFB401B022801D90320D0E57348406B27
:10141000022108400028F2D120212068084020281D
:1014200052D16E4840680C2108400C280AD06B4805
:1014300040680840082811D16848406849030840BE
:1014400088420BD16548406B0121090408400028FF
:101450003AD0206A012837D00120A8E5206A002868
:1014600019D05E48406B0121090408435B49486379
:10147000FFF7E4FA054606E0FFF7E0FA401B022812
:1014800001D9032093E55548406B01210904084028
:101490000028F1D018E05148406B0121090488432D
:1014A0004E494863FFF7CAFA054606E0FFF7C6FA59
:1014B000401B022801D9032079E54848406B0121EF
:1014C000090408400028F1D1606A00284FD0434841
:1014D00040680C210840082864D0606A022847D17F
:1014E0003E4800680121090688433C490860FFF72F
:1014F000A5FA054606E0FFF7A1FA401B022801D92C
:10150000032054E5354800680121490608400028B9
:10151000F1D100BF3148C06A00090001216B0843C6
:101520002E49C862A16AE06A08432C4949687B22B7
:10153000D203914308432949486000BF0846006828
:1015400001210906084325490860FFF777FA054697
:1015500006E0FFF773FA401B022801D9032026E5B5
:101560001E4800680121490608400028F1D033E0F8
:101570001A48006801210906884318490860FFF7E6
:101580005DFA054606E0FFF759FA401B022801D92B
:1015900003200CE511480068012149060840002895
:1015A000F1D119E0606A012800D100E50B484668D6
:1015B000C76A0320C0033040A16A88420AD13907B4
:1015C000090F206B814205D10F2080043040E16A71
:1015D000884201D00120EAE40020E8E40010024043
:1015E00070B504462546681E0949884201D9012084
:1015F0000CE0681E074948610321081F01F04CFBFD
:1016000000200449886107200861002070BD0000A7
:10161000FFFFFF0000E000E07047704770470000E8
:10162000F0B585B004462068C56920680668206862
:101630008768E94828400390039800280FD12020AC
:10164000284000280BD020203040002807D0606EB2
:10165000002802D02046616E884705B0F0BD03988F
:1016600000287DD0F807C00F002803D1DB483040A8
:101670000028F6D0E807C00F00280DD0FF20013069
:101680003040002808D001202168086280200059DD
:1016900001210843802108510220284000280CD055
:1016A000F807C00F002808D00220216808628020B7
:1016B00000590421084380210851042028400028B3
:1016C0000CD0F807C00F002808D004202168086259
:1016D0008020005902210843802108510820284019
:1016E000002810D020203040002803D1F807C00F78
:1016F000002808D0082021680862802000590821AD
:101700000843802108510120C002284000280ED043
:10171000012080063040002809D00120C002216845
:101720000862802000592021084380210851802030
:101730000059002854D020202840002809D020201B
:101740003040002805D0606E002802D02046616E2F
:10175000884780200059029020688068402100E07E
:101760003FE00840402804D0282102980840002883
:1017700030D0204600F0BAFF206880684021084041
:10178000402823D100BF01F0C3FA0190012001F0ED
:10179000C2FA2068806840218843216888600198E7
:1017A00001F0B9FA00BF206F00280BD08C48216FE0
:1017B0004863206FFEF7F3FE002811D0206F416BC5
:1017C00088470DE02046FFF729FF09E02046FFF794
:1017D00025FF05E02046FFF721FF00218020015171
:1017E0003BE7206E01287AD110202840002876D0CF
:1017F000102030400028FAD01020216808622068AC
:1018000080684021084040286BD1206F0068406804
:1018100080B201900198002860D05820015B0198A7
:1018200081425BDD5A2101980853206F806920288E
:101830004BD000BF01F06CFA0090012001F06BFA70
:1018400020680068FF210131884321680860009802
:1018500001F061FA00BF00BF01F05AFA00900120C8
:1018600001F059FA206880684008400021688860CB
:10187000009801F050FA00BF00BF01F049FA009053
:10188000012001F048FA20688068402188432168DF
:101890008860009801F03FFA00BF2020E067002038
:1018A000206600BF01F034FA0090012001F033FA05
:1018B000206800681021884321680860009801F0C2
:1018C0002AFA00BF206FFEF741FE5820025B5A2023
:1018D000005B101A81B22046FFF79EFEBDE64CE089
:1018E000FFE75820015B5A20005B081A80B2019084
:1018F0005A20005B00283FD0019800283CD000BF50
:1019000001F006FA0090012001F005FA2068006855
:10191000FF212131884321680860009801F0FBF91C
:1019200000BF00BF01F0F4F90090012001F0F3F9CD
:10193000206880684008400021688860009801F0B5
:10194000EAF900BF2020E06700202066606600BF43
:1019500001F0DEF90090012001F0DDF92068006857
:101960001021884321680860009801F0D4F900BF75
:1019700020460199FFF750FE6FE601200005284040
:1019800000280CD0012080053840002807D0012015
:101990000005216808622046FFF73FFE5DE68020D3
:1019A000284000280AD080203040002806D0A06EB1
:1019B000002802D02046A16E88474EE640202840ED
:1019C000002807D040203040002803D0204600F0F7
:1019D000CCFE42E600BF40E60F08000020010004F4
:1019E0003125000810B50446002C01D1012010BD9E
:1019F000A069002800D000E000BFA06F002805D13A
:101A0000002174200155204600F02CF82420A06706
:101A1000206800684008400021680860204600F007
:101A2000D5FE012800D1E2E7606A002802D02046F6
:101A300000F0CBFC206840680921C9028843216876
:101A40004860206880682A2188432168886020686F
:101A500000680121084321680860204600F02EFD3F
:101A6000C5E7000010B586B00446142101A8FEF7B2
:101A700032FC9449206888427ED100BF9248C069F8
:101A80000121490408439049C8610846C069012101
:101A900049040840009000BF00BF00BF8A48406969
:101AA00008438949486108464069012149040840C2
:101AB000009000BF00BF0C20019002200290012086
:101AC0000390032004900120059001A90920C0067D
:101AD000FEF79CFE7D487E4908600020486000219A
:101AE0007B4881608021C160002101614161816189
:101AF000C161FEF7F9FD002801D0FEF724FD00BF0B
:101B000072485030806A0F21090288436F49503172
:101B100088620846806A0921090208436B495031EE
:101B2000886200BF00BF6A482067446200BF674800
:101B300014306849086010204860002165488160C1
:101B40008021C1600021016141618161C161FEF7B5
:101B5000CBFD002801D0FEF7F6FC00BF5B485030FB
:101B6000806A0F210903884358495031886208462A
:101B7000806A0921090300E012E00843534950310B
:101B8000886200BF00BF5348E066446200BF002285
:101B900011461C20FEF7CCFF1C20FEF7BBFF8EE099
:101BA0004D4920688842FAD100BF4748806920210A
:101BB0000843454988610846806920210840009013
:101BC00000BF00BF00BF40484069890308433E4949
:101BD0004861084640690121C9040840009000BFDF
:101BE00000BF0320019002200290012003900320F7
:101BF00004900220059001A93848FEF707FE3348FB
:101C00002838374908600020486000213448816046
:101C10008021C1600021016141618161C161FEF7E4
:101C200063FD002801D0FEF78EFC00BF274850302E
:101C3000806A000900012549503188620846806A9F
:101C40000D21084321495031886200BF00BF24485C
:101C50002067446200BF1D481438224908601020E4
:101C6000486000211F4881608021C160002101611E
:101C700041618161C161FEF737FD002801D0FEF7A7
:101C800062FC00BF11485030806AF02188430F4940
:101C9000503188620846806AD02108430B49503190
:101CA000886200BF00BF0F48E066446200BF0022A8
:101CB00011461D20FEF73CFF1D20FEF72BFF06B04E
:101CC00010BD0000004400400010024030000240FF
:101CD0001C010020600100200014014000080048A1
:101CE000A4010020E8010020F8B504460D46164680
:101CF000E06F20283ED1002D01D0002E01D101201F
:101D0000F8BD01210903A068884208D12069002894
:101D100005D1E807C00F002801D00120F0E700BF7F
:101D20007420005D012801D10220E9E7012174201F
:101D3000015500BF0020206620684068C9050840A2
:101D4000002811D000BF00F0E3FF0746012000F09B
:101D5000E2FF2068006801218906084321680860C5
:101D6000384600F0D8FF00BF32462946204600F032
:101D70005DFEC5E70220C3E70121014A11707047EB
:101D80000000002070470000F8B504460E461546D6
:101D9000A06F202868D1002E01D0002D01D1012094
:101DA000F8BD01210903A068884208D120690028F4
:101DB00005D1F007C00F002801D00120F0E700BFD7
:101DC0007420005D012801D10220E9E7012174207F
:101DD000015500BFE66450200553522005530021F1
:101DE000802001512120A067E06E002821D01F48EB
:101DF000E16E88621E48E16EC8621E48E16E0863AB
:101E00000020E16E486323681A4628322B46E16CB5
:101E1000E06EFEF797FC00280BD0102180200151C6
:101E200000BF00217420015500BF2020A0670120C1
:101E3000B6E740202168086200BF002174200155E8
:101E400000BF00BF00F064FF0746012000F063FF01
:101E5000206880688021084321688860384600F047
:101E60005AFF00BF00209BE7022099E78126000867
:101E7000DF260008492500087047704700BFFEE7CD
:101E800008B500BF12484069012108431049486164
:101E900008464069C007C00F009000BF00BF002285
:101EA00011460920FEF744FE0920FEF733FE00220A
:101EB00011460A20FEF73CFE0A20FEF72BFE002208
:101EC00011460B20FEF734FE0B20FEF723FE08BD63
:101ED0000010024000B587B0142102A8FEF7FBF9FC
:101EE00000BF374840690121C904084334494861AB
:101EF000084640690121C9040840019000BF00BFA5
:101F000000BF2F484069891008432D4948610846A1
:101F10004069012149040840019000BF00BF00BF93
:101F200027484069490008432549486108464069F7
:101F3000012189040840019000BF00BF0022302128
:101F40000920C006FEF773FD00221B2149011D4830
:101F5000FEF76DFD00221C491C48FEF768FD30208D
:101F600002900120039004900020059002A909200E
:101F7000C006FEF74BFC1B2040010290012003909D
:101F800004900020059002A90E48FEF73FFC0E4881
:101F900002900120039004900020059002A90B48B4
:101FA000FEF734FC0120C0020290002003900120C3
:101FB000049002A90348FEF729FC07B000BD000009
:101FC00000100240000800483907000000040048E3
:101FD00010B50E480E4908604B20C0014860002132
:101FE0000B488160C16001610C2141610021816168
:101FF000C16101620020064948620846FFF7F2FC11
:10200000002801D0FEF79FFA10BD000000440040F8
:102010001400002010B50E480E4908604B20C00186
:10202000486000210B488160C16001610C21416161
:1020300000218161C16101620020064948620846B1
:10204000FFF7D0FC002801D0FEF77DFA10BD00009C
:10205000001401409800002010B5B3480078012812
:102060007DD10020B04908700222B049B048FFF786
:102070008BFEAE4840783038030000F0FFFD0A06C2
:102080000708090A0B0C0D0E0F1A00BF00BF00BF96
:1020900000BF00BF00BF00BF00BF00BF202109205C
:1020A000C006FEF7BAFCA14840783038A149087054
:1020B00003E063209F49087000BF00BF9B48807801
:1020C000C007C00F002803D001209B49087002E020
:1020D00000209949087097480078030000F0CEFD71
:1020E0000A062648698AABCCF2F0EFEE0022FF2107
:1020F00001319248FEF79BFC002240218F48FEF7F9
:1021000096FC002220218D48FEF791FC012251020D
:102110008A48FEF78CFC012211028948FEF787FCF1
:10212000012251028648FEF782FCF6E001221102EC
:102130008248FEF77CFC002240218048FEF777FCB5
:10214000002220217D48FEF772FC00220121490275
:102150007A48FEF76CFC01221102794800E0E2E0C7
:10216000FEF765FC012251027548FEF760FCD4E0E1
:102170000022FF2101317148FEF759FC0122402164
:102180006E48FEF754FC002220216C48FEF74FFCFD
:10219000012251026948FEF74AFC0022FF21013169
:1021A0006748FEF744FC012251026548FEF73FFCF8
:1021B000B3E0012211026148FEF739FC01224021FF
:1021C0005E48FEF734FC002220215C48FEF72FFC1D
:1021D0000022012149025948FEF729FC0022FF2173
:1021E00001315748FEF723FC012251025448FEF703
:1021F0001EFC92E00022FF2101315048FEF717FC3F
:10220000002240214D48FEF712FC012220214B48BC
:10221000FEF70DFC012251024848FEF708FC01229E
:1022200011024748FEF703FC0022012149024448FD
:10223000FEF7FDFB71E0012211024048FEF7F7FBBB
:10224000002240213D48FEF7F2FB012220213B48BD
:10225000FEF7EDFB0022012149023848FEF7E7FBBB
:10226000012211023648FEF7E2FB00220121490259
:102270003348FEF7DCFB50E00022FF2101312F48FC
:10228000FEF7D5FB012240212C48FEF7D0FB0122AE
:1022900020212A48FEF7CBFB012251022748FEF7F6
:1022A000C6FB0022FF2101312548FEF7C0FB0022BA
:1022B000012149022248FEF7BAFB2EE02CE02AE079
:1022C00022E0FFE7012211021C48FEF7B0FB0122C9
:1022D00040211A48FEF7ABFB012220211748FEF7E8
:1022E000A6FB0022012149021448FEF7A0FB0022B0
:1022F000FF2101311248FEF79AFB00220121490219
:102300000F48FEF794FB08E0002210210920C006C8
:10231000FEF78DFB01E000E000BF00BF072203498C
:102320000348FFF7E1FC10BD000000202C02002054
:1023300014000020020000200100002000080048D6
:102340000004004800BFFEE77047704710B5FEF775
:102350007BFBFFF781FE10BD00B599B034210CA8BE
:10236000FDF7B9FF0020089009900A900B901C21FE
:1023700001A8FDF7B0FF20200C9001201490002050
:1023800015900CA8FEF70EFE002801D0FEF7DBF832
:10239000072008900320099000200A900B9001214B
:1023A00008A8FEF7A1FC002801D0FEF7CCF8022017
:1023B00001900020049001A8FEF7C4FB002801D082
:1023C000FEF7C1F819B000BD7047818CC907C90F6D
:1023D000002908D001684968012252049143826AA9
:1023E0001143026851600222416A1140022907D15B
:1023F00001684968D2039143C26A1143026851607F
:102400000422416A1140042907D101684968120475
:102410009143026B1143026851600822416A1140E6
:10242000082907D10168496812039143426B11439F
:10243000026851601022416A1140102907D10168D9
:10244000896812029143826B1143026891602022D5
:10245000416A1140202907D101688968120291431D
:10246000C26B1143026891604022416A11404029C9
:1024700015D10168496892039143026C11430268C7
:10248000516001221205016C914208D1016849682E
:10249000032252059143426C11430268516080222D
:1024A000416A1140802907D10168496812039143AC
:1024B000826C1143026851607047000038B50446D1
:1024C000002180200151FEF7B9FA05462068006816
:1024D0000821084008280BD114482B460022890403
:1024E0000090204600F014FB002801D0032038BDE6
:1024F000206800680421084004280BD10B482B46B3
:10250000002209050090204600F002FB002801D0BF
:102510000320ECE72020A067E0670020206600BFD2
:1025200000217420015500BF0020E0E7FFFFFF01FC
:1025300070B505466C6A00215A20015352200153A0
:102540002046FFF76BF870BDF8B505466C6AA66FBC
:10255000E76F2068806880210840802807D1212EFD
:1025600005D1002152200153204600F019F92068BE
:10257000806840210840402807D1222F05D1002142
:102580005A200153204600F0B1F880200059102154
:102590000843802108512046FFF740F8F8BD70B588
:1025A00005466C6AA86920284CD000215A200153A6
:1025B00000BF00F0ADFB0646012000F0ACFB206838
:1025C0000068FF210131884321680860304600F02F
:1025D000A2FB00BF00BF00F09BFB0646012000F0FD
:1025E0009AFB206880684008400021688860304677
:1025F00000F091FB00BF00BF00F08AFB06460120FF
:1026000000F089FB20688068402188432168886049
:10261000304600F080FB00BF2020E067206E0128DC
:1026200010D100BF00F074FB0646012000F073FBE0
:10263000206800681021884321680860304600F057
:102640006AFB00BF206E012805D15820015B20469F
:10265000FEF7E2FF02E02046FFF78EFB70BD70B58B
:1026600005466C6A206E012806D15820005B41089F
:102670002046FEF7D1FF02E02046FFF783FB70BD46
:1026800070B505466C6AA869202824D00021522024
:10269000015300BF00F03CFB0646012000F03BFB6D
:1026A000206880688021884321688860304600F077
:1026B00032FB00BF00BF00F02BFB0646012000F0FC
:1026C0002AFB2068006840210843216808603046E2
:1026D00000F021FB02E02046FFF7CEFB70BD70B595
:1026E0000446656A2846FFF7C8FB70BD70B504460E
:1026F00000BF00F00DFB0546012000F00CFB206838
:102700000068FF212131884321680860284600F0D5
:1027100002FB00BF00BF00F0FBFA0546012000F0FD
:10272000FAFA2068806840084000216888602846DE
:1027300000F0F1FA00BF206E012810D100BF00F0B8
:10274000E7FA0546012000F0E6FA2068006810214B
:10275000884321680860284600F0DDFA00BF202089
:10276000E06700202066606670BD70B5044600BF5B
:1027700000F0CEFA0546012000F0CDFA206800688E
:102780004021884321680860284600F0C4FA00BF51
:102790002020A0670020A0662046FFF76DFB70BDDB
:1027A00070B5044600BF00F0B3FA0546012000F002
:1027B000B2FA20680068C021884321680860284672
:1027C00000F0A9FA00BF2020A06770BDFEB5044646
:1027D000002000902169A068084361690843E1690D
:1027E0000843029020680068844908400299084321
:1027F0002168086020684068032109038843E16874
:10280000084321684860A0690290206A0299084341
:102810000290206880680B210902884302990843CE
:102820002168886000BF76492068884217D17548C2
:10283000006B8007800F002806D0012808D00228EE
:1028400008D0032808D101E0002507E0022505E0B3
:10285000042503E0082501E0102500BF5CE06A497B
:10286000206888421AD16748006B03210904084098
:10287000002808D001210904401A08D0401A08D0C5
:10288000401A08D101E0002507E0022505E00425F3
:1028900003E0082501E0102500BF3DE05B4920680A
:1028A00088421AD15748006B032189040840002848
:1028B00008D001218904401A08D0401A08D0401AD3
:1028C00008D101E0002507E0022505E0042503E02A
:1028D000082501E0102500BF1EE04D492068884210
:1028E00001D1002518E04B492068884201D100251C
:1028F00012E049492068884201D100250CE047498F
:102900002068884201D1002506E0454920688842B8
:1029100001D1002500E0102500BF0121C903E069B5
:10292000884239D1002D06D0022D08D0042D08D0C0
:10293000082D0DD109E0FEF79FFA06460CE0394E4E
:102940000AE0FEF7ABFA064606E00126F60303E0CE
:1029500000260120009000BF00BF002E49D0720069
:1029600063685B08D0186168FDF7B7FC87B2102F69
:102970000FD32D4887420CD82B480F383840019090
:102980003807400F01990843019001982168C860F9
:102990002FE0012000902CE0002D06D0022D08D061
:1029A000042D08D0082D0DD109E0FEF765FA064682
:1029B0000CE01C4E0AE0FEF771FA064606E001261E
:1029C000F60303E000260120009000BF00BF002EA8
:1029D0000FD061684A089019FDF77FFC87B2102F6D
:1029E00005D31148874202D82068C76001E0012062
:1029F000009000206066A0660098FEBDF369FFEFBE
:102A000000380140001002400044004000480040EF
:102A1000004C0040005000400014014000180140EC
:102A2000001C014000127A00FFFF0000F8B50446C8
:102A30000E46154666655820055300218020015139
:102A40002220E067206F002821D02E48216F886265
:102A50002D48216FC8622D48216F08630020216F27
:102A600048632368194624312B46626D206FFDF7B9
:102A700069FE00280BD010218020015100BF0021E9
:102A80007420015500BF2020E0670120F8BD00BF81
:102A900000217420015500BF00BF00F039F907463E
:102AA000012000F038F920680068FF210131084357
:102AB00021680860384600F02EF900BF00BF00F022
:102AC00027F90746012000F026F9206880680121D7
:102AD000084321688860384600F01DF900BF00BF38
:102AE00000F016F90746012000F015F9206880680B
:102AF0004021084321688860384600F00CF900BF87
:102B00000020C3E79F2500085F260008492500082C
:102B1000FFB581B004460D4617460A9E78E0701C4A
:102B2000002875D0FDF78AFF0499401AB04201D8F9
:102B3000002E2DD100BF00F0EBF80090012000F036
:102B4000EAF820680068FF21A13188432168086005
:102B5000009800F0E0F800BF00BF00F0D9F8009046
:102B6000012000F0D8F82068806840084000216803
:102B70008860009800F0CFF800BF2020A067E067D1
:102B800000BF00217420015500BF032005B0F0BD37
:102B90002068006804210840002839D02068C069F6
:102BA00049020840C00A002832D00846216808625D
:102BB00000BF00F0ADF80090012000F0ACF82068F4
:102BC0000068FF21A131884321680860009800F067
:102BD000A2F800BF00BF00F09BF80090012000F0B9
:102BE0009AF8206880684008400021688860009852
:102BF00000F091F800BF2020A067E067202180202E
:102C0000015100BF00217420015500BF0320BDE722
:102C10002068C0692840A84201D1012000E00020BE
:102C2000B84200D17BE70020B0E7000010B50248B1
:102C3000FEF7F6FC10BD00001400002010B502489D
:102C4000FEF7EEFC10BD000098000020F8B582B23F
:102C50008BB2040C0D0C10465843002126465E43EF
:102C6000370C36048019794116466E43370C36040A
:102C70008019794126466E438919F8BD30B47446EF
:102C8000641E2578641CAB4204D3635D5B00E318CB
:102C900030BC18471D46F8E710B5002819DB1A4A62
:102CA00003231B02D21883089B00D2588307DC0E33
:102CB000FF23A3409A438B071B0E8407E40EA34017
:102CC0001A43114B032424021B198408A4001A512F
:102CD00018E00E4A03071B0F083B9B089B00D258C5
:102CE0008307DC0EFF23A3409A438B071B0E840748
:102CF000E40EA3401A43054B0407240F083CA40824
:102D0000A4001A5110BD000000E100E01CED00E03D
:102D1000EFF31080704780F310887047FDF7A0FE36
:102D200000202849087028490870FFF715FBFFF7B5
:102D3000D1F8FFF7A5F8FFF74BF9FFF76BF9002281
:102D4000FF2101312148FDF772FE002240211F487A
:102D5000FDF76DFE002220211C48FDF768FE0122D0
:102D600051021A48FDF763FE012211021848FDF7CF
:102D70005EFE012251021648FDF759FE0722154951
:102D80001548FEF7B1FF1CE00121C9020F48FDF70D
:102D90003BFE002801D10C4908700B48007801283F
:102DA00005D110210920C006FDF737FE05E00022FD
:102DB00010210920C006FDF73AFEFF20F530FDF78F
:102DC0000FFDE1E70200002001000020000800489C
:102DD000000400482C020020140000200000000025
:102DE00000000000010203040607080900000000BB
:102DF00001020304142E000800000020140000004B
:102E000000010008282E0008140000208C08000093
:102E10001C01000800000000000000000400000089
:082E20000100000000127A001D
:04000005080000BD32
:00000001FF
